{
  "contractName": "Twitter",
  "abi": [
    {
      "inputs": [
        {
          "internalType": "address",
          "name": "",
          "type": "address"
        },
        {
          "internalType": "uint256",
          "name": "",
          "type": "uint256"
        }
      ],
      "name": "chats",
      "outputs": [
        {
          "internalType": "uint256",
          "name": "id",
          "type": "uint256"
        },
        {
          "internalType": "string",
          "name": "content",
          "type": "string"
        },
        {
          "internalType": "address",
          "name": "from",
          "type": "address"
        },
        {
          "internalType": "address",
          "name": "to",
          "type": "address"
        },
        {
          "internalType": "uint256",
          "name": "createdAt",
          "type": "uint256"
        }
      ],
      "stateMutability": "view",
      "type": "function",
      "constant": true
    },
    {
      "inputs": [
        {
          "internalType": "address",
          "name": "",
          "type": "address"
        },
        {
          "internalType": "uint256",
          "name": "",
          "type": "uint256"
        }
      ],
      "name": "followings",
      "outputs": [
        {
          "internalType": "address",
          "name": "",
          "type": "address"
        }
      ],
      "stateMutability": "view",
      "type": "function",
      "constant": true
    },
    {
      "inputs": [
        {
          "internalType": "uint256",
          "name": "",
          "type": "uint256"
        }
      ],
      "name": "i1",
      "outputs": [
        {
          "internalType": "string",
          "name": "imageHash",
          "type": "string"
        },
        {
          "internalType": "string",
          "name": "caption",
          "type": "string"
        },
        {
          "internalType": "uint256",
          "name": "uploaded_at",
          "type": "uint256"
        }
      ],
      "stateMutability": "view",
      "type": "function",
      "constant": true
    },
    {
      "inputs": [
        {
          "internalType": "address",
          "name": "",
          "type": "address"
        },
        {
          "internalType": "uint256",
          "name": "",
          "type": "uint256"
        }
      ],
      "name": "images",
      "outputs": [
        {
          "internalType": "string",
          "name": "imageHash",
          "type": "string"
        },
        {
          "internalType": "string",
          "name": "caption",
          "type": "string"
        },
        {
          "internalType": "uint256",
          "name": "uploaded_at",
          "type": "uint256"
        }
      ],
      "stateMutability": "view",
      "type": "function",
      "constant": true
    },
    {
      "inputs": [
        {
          "internalType": "address",
          "name": "",
          "type": "address"
        }
      ],
      "name": "loggedIn",
      "outputs": [
        {
          "internalType": "bool",
          "name": "",
          "type": "bool"
        }
      ],
      "stateMutability": "view",
      "type": "function",
      "constant": true
    },
    {
      "inputs": [
        {
          "internalType": "uint256",
          "name": "",
          "type": "uint256"
        }
      ],
      "name": "tweets",
      "outputs": [
        {
          "internalType": "uint256",
          "name": "id",
          "type": "uint256"
        },
        {
          "internalType": "address",
          "name": "author",
          "type": "address"
        },
        {
          "internalType": "string",
          "name": "content",
          "type": "string"
        },
        {
          "internalType": "uint256",
          "name": "createdAt",
          "type": "uint256"
        }
      ],
      "stateMutability": "view",
      "type": "function",
      "constant": true
    },
    {
      "inputs": [
        {
          "internalType": "address",
          "name": "",
          "type": "address"
        },
        {
          "internalType": "uint256",
          "name": "",
          "type": "uint256"
        }
      ],
      "name": "tweetsOf",
      "outputs": [
        {
          "internalType": "uint256",
          "name": "",
          "type": "uint256"
        }
      ],
      "stateMutability": "view",
      "type": "function",
      "constant": true
    },
    {
      "inputs": [
        {
          "internalType": "uint256",
          "name": "",
          "type": "uint256"
        }
      ],
      "name": "u1",
      "outputs": [
        {
          "internalType": "address",
          "name": "id",
          "type": "address"
        },
        {
          "internalType": "string",
          "name": "password",
          "type": "string"
        }
      ],
      "stateMutability": "view",
      "type": "function",
      "constant": true
    },
    {
      "inputs": [
        {
          "internalType": "address",
          "name": "_id",
          "type": "address"
        },
        {
          "internalType": "string",
          "name": "pass",
          "type": "string"
        }
      ],
      "name": "create_user",
      "outputs": [
        {
          "internalType": "string",
          "name": "",
          "type": "string"
        }
      ],
      "stateMutability": "nonpayable",
      "type": "function"
    },
    {
      "inputs": [
        {
          "internalType": "address",
          "name": "uid",
          "type": "address"
        },
        {
          "internalType": "string",
          "name": "passd",
          "type": "string"
        }
      ],
      "name": "log_in",
      "outputs": [
        {
          "internalType": "string",
          "name": "",
          "type": "string"
        }
      ],
      "stateMutability": "nonpayable",
      "type": "function"
    },
    {
      "inputs": [
        {
          "internalType": "address",
          "name": "_from",
          "type": "address"
        },
        {
          "internalType": "string",
          "name": "_content",
          "type": "string"
        }
      ],
      "name": "tweet",
      "outputs": [],
      "stateMutability": "nonpayable",
      "type": "function"
    },
    {
      "inputs": [
        {
          "internalType": "address",
          "name": "_from",
          "type": "address"
        },
        {
          "internalType": "address",
          "name": "_to",
          "type": "address"
        },
        {
          "internalType": "string",
          "name": "_content",
          "type": "string"
        }
      ],
      "name": "sendMessage",
      "outputs": [],
      "stateMutability": "nonpayable",
      "type": "function"
    },
    {
      "inputs": [
        {
          "internalType": "string",
          "name": "hash",
          "type": "string"
        },
        {
          "internalType": "string",
          "name": "_caption",
          "type": "string"
        }
      ],
      "name": "uploadImage",
      "outputs": [],
      "stateMutability": "nonpayable",
      "type": "function"
    },
    {
      "inputs": [
        {
          "internalType": "address",
          "name": "_followed",
          "type": "address"
        }
      ],
      "name": "follow",
      "outputs": [],
      "stateMutability": "nonpayable",
      "type": "function"
    },
    {
      "inputs": [
        {
          "internalType": "uint256",
          "name": "count",
          "type": "uint256"
        }
      ],
      "name": "getLatestTweets",
      "outputs": [
        {
          "components": [
            {
              "internalType": "uint256",
              "name": "id",
              "type": "uint256"
            },
            {
              "internalType": "address",
              "name": "author",
              "type": "address"
            },
            {
              "internalType": "string",
              "name": "content",
              "type": "string"
            },
            {
              "internalType": "uint256",
              "name": "createdAt",
              "type": "uint256"
            }
          ],
          "internalType": "struct Twitter.Tweet[]",
          "name": "",
          "type": "tuple[]"
        }
      ],
      "stateMutability": "view",
      "type": "function",
      "constant": true
    },
    {
      "inputs": [
        {
          "internalType": "address",
          "name": "_user",
          "type": "address"
        },
        {
          "internalType": "uint256",
          "name": "count",
          "type": "uint256"
        }
      ],
      "name": "getLatestofUser",
      "outputs": [
        {
          "components": [
            {
              "internalType": "uint256",
              "name": "id",
              "type": "uint256"
            },
            {
              "internalType": "address",
              "name": "author",
              "type": "address"
            },
            {
              "internalType": "string",
              "name": "content",
              "type": "string"
            },
            {
              "internalType": "uint256",
              "name": "createdAt",
              "type": "uint256"
            }
          ],
          "internalType": "struct Twitter.Tweet[]",
          "name": "",
          "type": "tuple[]"
        }
      ],
      "stateMutability": "view",
      "type": "function",
      "constant": true
    },
    {
      "inputs": [],
      "name": "log_out",
      "outputs": [],
      "stateMutability": "nonpayable",
      "type": "function"
    }
  ],
  "bytecode": "0x608060405234801561001057600080fd5b50612721806100206000396000f3fe608060405234801561001057600080fd5b506004361061010b5760003560e01c806390306bfc116100a2578063b88e318d11610071578063b88e318d14610307578063bd111dfc14610323578063d21d159614610357578063dedf1b4a14610373578063e8d857b0146103a35761010b565b806390306bfc146102585780639d7025b214610289578063a91b8314146102bb578063af22bf94146102d75761010b565b80634dc0a687116100de5780634dc0a687146101be5780635284b64a146101ee57806367b122f11461021e5780636a4fa781146102285761010b565b80632ac3379214610110578063369d0f1a146101425780633c7d0aaf146101725780634dbf27cc146101a2575b600080fd5b61012a600480360381019061012591906118f1565b6103d6565b604051610139939291906119d0565b60405180910390f35b61015c60048036038101906101579190611b4a565b61052d565b6040516101699190611ba6565b60405180910390f35b61018c60048036038101906101879190611b4a565b6106fd565b6040516101999190611ba6565b60405180910390f35b6101bc60048036038101906101b79190611bc8565b6108eb565b005b6101d860048036038101906101d39190611bf5565b61098e565b6040516101e59190611daf565b60405180910390f35b610208600480360381019061020391906118f1565b610b09565b6040516102159190611daf565b60405180910390f35b610226610dcf565b005b610242600480360381019061023d9190611bc8565b610e28565b60405161024f9190611dec565b60405180910390f35b610272600480360381019061026d9190611bf5565b610e48565b604051610280929190611e16565b60405180910390f35b6102a3600480360381019061029e9190611bf5565b610f24565b6040516102b2939291906119d0565b60405180910390f35b6102d560048036038101906102d09190611e46565b61106e565b005b6102f160048036038101906102ec91906118f1565b61112d565b6040516102fe9190611ebe565b60405180910390f35b610321600480360381019061031c9190611ed9565b61115e565b005b61033d600480360381019061033891906118f1565b611360565b60405161034e959493929190611f48565b60405180910390f35b610371600480360381019061036c9190611b4a565b61147b565b005b61038d600480360381019061038891906118f1565b6116e5565b60405161039a9190611fa2565b60405180910390f35b6103bd60048036038101906103b89190611bf5565b611733565b6040516103cd9493929190611fbd565b60405180910390f35b600260205281600052604060002081815481106103f257600080fd5b90600052602060002090600302016000915091505080600001805461041690612038565b80601f016020809104026020016040519081016040528092919081815260200182805461044290612038565b801561048f5780601f106104645761010080835404028352916020019161048f565b820191906000526020600020905b81548152906001019060200180831161047257829003601f168201915b5050505050908060010180546104a490612038565b80601f01602080910402602001604051908101604052809291908181526020018280546104d090612038565b801561051d5780601f106104f25761010080835404028352916020019161051d565b820191906000526020600020905b81548152906001019060200180831161050057829003601f168201915b5050505050908060020154905083565b606060005b600880549050811015610608578373ffffffffffffffffffffffffffffffffffffffff166008828154811061056a57610569612069565b5b906000526020600020906002020160000160009054906101000a900473ffffffffffffffffffffffffffffffffffffffff1673ffffffffffffffffffffffffffffffffffffffff16036105f5576040518060400160405280601381526020017f7573657220616c726561647920657869737473000000000000000000000000008152509150506106f7565b8080610600906120c7565b915050610532565b50600860405180604001604052808573ffffffffffffffffffffffffffffffffffffffff16815260200184815250908060018154018082558091505060019003906000526020600020906002020160009091909190915060008201518160000160006101000a81548173ffffffffffffffffffffffffffffffffffffffff021916908373ffffffffffffffffffffffffffffffffffffffff16021790555060208201518160010190816106bb91906122bb565b5050506040518060400160405280601981526020017f757365722063726561746564207375636365737366756c6c790000000000000081525090505b92915050565b606060005b6008805490508110156108ab576008818154811061072357610722612069565b5b906000526020600020906002020160000160009054906101000a900473ffffffffffffffffffffffffffffffffffffffff1673ffffffffffffffffffffffffffffffffffffffff168473ffffffffffffffffffffffffffffffffffffffff161480156107fe57506008818154811061079e5761079d612069565b5b90600052602060002090600202016001016040516020016107bf919061241b565b60405160208183030381529060405280519060200120836040516020016107e69190612463565b60405160208183030381529060405280519060200120145b156108985760016000808673ffffffffffffffffffffffffffffffffffffffff1673ffffffffffffffffffffffffffffffffffffffff16815260200190815260200160002060006101000a81548160ff0219169083151502179055506040518060400160405280601681526020017f77656c636f6d6520746f207468652074776974746572000000000000000000008152509150506108e5565b80806108a3906120c7565b915050610702565b506040518060400160405280601181526020017f77726f6e672069642070617373776f726400000000000000000000000000000081525090505b92915050565b600560003373ffffffffffffffffffffffffffffffffffffffff1673ffffffffffffffffffffffffffffffffffffffff168152602001908152602001600020819080600181540180825580915050600190039060005260206000200160009091909190916101000a81548173ffffffffffffffffffffffffffffffffffffffff021916908373ffffffffffffffffffffffffffffffffffffffff16021790555050565b60606000821180156109a257506006548211155b6109e1576040517f08c379a00000000000000000000000000000000000000000000000000000000081526004016109d8906124c6565b60405180910390fd5b60008267ffffffffffffffff8111156109fd576109fc611a1f565b5b604051908082528060200260200182016040528015610a3657816020015b610a2361180b565b815260200190600190039081610a1b5790505b50905060008084600654610a4a91906124e6565b90505b600654811015610afe576000838281518110610a6c57610a6b612069565b5b60200260200101519050604051806080016040528082600001518152602001826020015173ffffffffffffffffffffffffffffffffffffffff168152602001826040015181526020018260600151815250848481518110610ad057610acf612069565b5b6020026020010181905250600183610ae8919061251a565b9250508080610af6906120c7565b915050610a4d565b508192505050919050565b606060008267ffffffffffffffff811115610b2757610b26611a1f565b5b604051908082528060200260200182016040528015610b6057816020015b610b4d61180b565b815260200190600190039081610b455790505b5090506000600360008673ffffffffffffffffffffffffffffffffffffffff1673ffffffffffffffffffffffffffffffffffffffff168152602001908152602001600020805480602002602001604051908101604052809291908181526020018280548015610bee57602002820191906000526020600020905b815481526020019060010190808311610bda575b50505050509050600084118015610c06575080518411155b610c45576040517f08c379a0000000000000000000000000000000000000000000000000000000008152600401610c3c9061259a565b60405180910390fd5b600080858351610c5591906124e6565b90505b8251811015610dc257600060016000858481518110610c7a57610c79612069565b5b6020026020010151815260200190815260200160002090506040518060800160405280826000015481526020018260010160009054906101000a900473ffffffffffffffffffffffffffffffffffffffff1673ffffffffffffffffffffffffffffffffffffffff168152602001826002018054610cf690612038565b80601f0160208091040260200160405190810160405280929190818152602001828054610d2290612038565b8015610d6f5780601f10610d4457610100808354040283529160200191610d6f565b820191906000526020600020905b815481529060010190602001808311610d5257829003601f168201915b505050505081526020018260030154815250858481518110610d9457610d93612069565b5b6020026020010181905250600183610dac919061251a565b9250508080610dba906120c7565b915050610c58565b5082935050505092915050565b60008060003373ffffffffffffffffffffffffffffffffffffffff1673ffffffffffffffffffffffffffffffffffffffff16815260200190815260200160002060006101000a81548160ff021916908315150217905550565b60006020528060005260406000206000915054906101000a900460ff1681565b60088181548110610e5857600080fd5b90600052602060002090600202016000915090508060000160009054906101000a900473ffffffffffffffffffffffffffffffffffffffff1690806001018054610ea190612038565b80601f0160208091040260200160405190810160405280929190818152602001828054610ecd90612038565b8015610f1a5780601f10610eef57610100808354040283529160200191610f1a565b820191906000526020600020905b815481529060010190602001808311610efd57829003601f168201915b5050505050905082565b60098181548110610f3457600080fd5b9060005260206000209060030201600091509050806000018054610f5790612038565b80601f0160208091040260200160405190810160405280929190818152602001828054610f8390612038565b8015610fd05780601f10610fa557610100808354040283529160200191610fd0565b820191906000526020600020905b815481529060010190602001808311610fb357829003601f168201915b505050505090806001018054610fe590612038565b80601f016020809104026020016040519081016040528092919081815260200182805461101190612038565b801561105e5780601f106110335761010080835404028352916020019161105e565b820191906000526020600020905b81548152906001019060200180831161104157829003601f168201915b5050505050908060020154905083565b600260003373ffffffffffffffffffffffffffffffffffffffff1673ffffffffffffffffffffffffffffffffffffffff1681526020019081526020016000206040518060600160405280848152602001838152602001428152509080600181540180825580915050600190039060005260206000209060030201600090919091909150600082015181600001908161110691906122bb565b50602082015181600101908161111c91906122bb565b506040820151816002015550505050565b6003602052816000526040600020818154811061114957600080fd5b90600052602060002001600091509150505481565b3373ffffffffffffffffffffffffffffffffffffffff168373ffffffffffffffffffffffffffffffffffffffff16146111cc576040517f08c379a00000000000000000000000000000000000000000000000000000000081526004016111c390612606565b60405180910390fd5b600460008473ffffffffffffffffffffffffffffffffffffffff1673ffffffffffffffffffffffffffffffffffffffff1681526020019081526020016000206040518060a0016040528060075481526020018381526020018573ffffffffffffffffffffffffffffffffffffffff1681526020018473ffffffffffffffffffffffffffffffffffffffff1681526020014281525090806001815401808255809150506001900390600052602060002090600502016000909190919091506000820151816000015560208201518160010190816112a891906122bb565b5060408201518160020160006101000a81548173ffffffffffffffffffffffffffffffffffffffff021916908373ffffffffffffffffffffffffffffffffffffffff16021790555060608201518160030160006101000a81548173ffffffffffffffffffffffffffffffffffffffff021916908373ffffffffffffffffffffffffffffffffffffffff16021790555060808201518160040155505060076000815480929190611356906120c7565b9190505550505050565b6004602052816000526040600020818154811061137c57600080fd5b9060005260206000209060050201600091509150508060000154908060010180546113a690612038565b80601f01602080910402602001604051908101604052809291908181526020018280546113d290612038565b801561141f5780601f106113f45761010080835404028352916020019161141f565b820191906000526020600020905b81548152906001019060200180831161140257829003601f168201915b5050505050908060020160009054906101000a900473ffffffffffffffffffffffffffffffffffffffff16908060030160009054906101000a900473ffffffffffffffffffffffffffffffffffffffff16908060040154905085565b3373ffffffffffffffffffffffffffffffffffffffff16636a4fa781336040518263ffffffff1660e01b81526004016114b49190611fa2565b602060405180830381865afa1580156114d1573d6000803e3d6000fd5b505050506040513d601f19601f820116820180604052508101906114f59190612652565b611534576040517f08c379a000000000000000000000000000000000000000000000000000000000815260040161152b906126cb565b60405180910390fd5b3373ffffffffffffffffffffffffffffffffffffffff168273ffffffffffffffffffffffffffffffffffffffff16146115a2576040517f08c379a000000000000000000000000000000000000000000000000000000000815260040161159990612606565b60405180910390fd5b604051806080016040528060065481526020018373ffffffffffffffffffffffffffffffffffffffff168152602001828152602001428152506001600060065481526020019081526020016000206000820151816000015560208201518160010160006101000a81548173ffffffffffffffffffffffffffffffffffffffff021916908373ffffffffffffffffffffffffffffffffffffffff160217905550604082015181600201908161165691906122bb565b5060608201518160030155905050600360008373ffffffffffffffffffffffffffffffffffffffff1673ffffffffffffffffffffffffffffffffffffffff168152602001908152602001600020600654908060018154018082558091505060019003906000526020600020016000909190919091505560016006546116db919061251a565b6006819055505050565b6005602052816000526040600020818154811061170157600080fd5b906000526020600020016000915091509054906101000a900473ffffffffffffffffffffffffffffffffffffffff1681565b60016020528060005260406000206000915090508060000154908060010160009054906101000a900473ffffffffffffffffffffffffffffffffffffffff169080600201805461178290612038565b80601f01602080910402602001604051908101604052809291908181526020018280546117ae90612038565b80156117fb5780601f106117d0576101008083540402835291602001916117fb565b820191906000526020600020905b8154815290600101906020018083116117de57829003601f168201915b5050505050908060030154905084565b604051806080016040528060008152602001600073ffffffffffffffffffffffffffffffffffffffff16815260200160608152602001600081525090565b6000604051905090565b600080fd5b600080fd5b600073ffffffffffffffffffffffffffffffffffffffff82169050919050565b60006118888261185d565b9050919050565b6118988161187d565b81146118a357600080fd5b50565b6000813590506118b58161188f565b92915050565b6000819050919050565b6118ce816118bb565b81146118d957600080fd5b50565b6000813590506118eb816118c5565b92915050565b6000806040838503121561190857611907611853565b5b6000611916858286016118a6565b9250506020611927858286016118dc565b9150509250929050565b600081519050919050565b600082825260208201905092915050565b60005b8381101561196b578082015181840152602081019050611950565b60008484015250505050565b6000601f19601f8301169050919050565b600061199382611931565b61199d818561193c565b93506119ad81856020860161194d565b6119b681611977565b840191505092915050565b6119ca816118bb565b82525050565b600060608201905081810360008301526119ea8186611988565b905081810360208301526119fe8185611988565b9050611a0d60408301846119c1565b949350505050565b600080fd5b600080fd5b7f4e487b7100000000000000000000000000000000000000000000000000000000600052604160045260246000fd5b611a5782611977565b810181811067ffffffffffffffff82111715611a7657611a75611a1f565b5b80604052505050565b6000611a89611849565b9050611a958282611a4e565b919050565b600067ffffffffffffffff821115611ab557611ab4611a1f565b5b611abe82611977565b9050602081019050919050565b82818337600083830152505050565b6000611aed611ae884611a9a565b611a7f565b905082815260208101848484011115611b0957611b08611a1a565b5b611b14848285611acb565b509392505050565b600082601f830112611b3157611b30611a15565b5b8135611b41848260208601611ada565b91505092915050565b60008060408385031215611b6157611b60611853565b5b6000611b6f858286016118a6565b925050602083013567ffffffffffffffff811115611b9057611b8f611858565b5b611b9c85828601611b1c565b9150509250929050565b60006020820190508181036000830152611bc08184611988565b905092915050565b600060208284031215611bde57611bdd611853565b5b6000611bec848285016118a6565b91505092915050565b600060208284031215611c0b57611c0a611853565b5b6000611c19848285016118dc565b91505092915050565b600081519050919050565b600082825260208201905092915050565b6000819050602082019050919050565b611c57816118bb565b82525050565b611c668161187d565b82525050565b600082825260208201905092915050565b6000611c8882611931565b611c928185611c6c565b9350611ca281856020860161194d565b611cab81611977565b840191505092915050565b6000608083016000830151611cce6000860182611c4e565b506020830151611ce16020860182611c5d565b5060408301518482036040860152611cf98282611c7d565b9150506060830151611d0e6060860182611c4e565b508091505092915050565b6000611d258383611cb6565b905092915050565b6000602082019050919050565b6000611d4582611c22565b611d4f8185611c2d565b935083602082028501611d6185611c3e565b8060005b85811015611d9d5784840389528151611d7e8582611d19565b9450611d8983611d2d565b925060208a01995050600181019050611d65565b50829750879550505050505092915050565b60006020820190508181036000830152611dc98184611d3a565b905092915050565b60008115159050919050565b611de681611dd1565b82525050565b6000602082019050611e016000830184611ddd565b92915050565b611e108161187d565b82525050565b6000604082019050611e2b6000830185611e07565b8181036020830152611e3d8184611988565b90509392505050565b60008060408385031215611e5d57611e5c611853565b5b600083013567ffffffffffffffff811115611e7b57611e7a611858565b5b611e8785828601611b1c565b925050602083013567ffffffffffffffff811115611ea857611ea7611858565b5b611eb485828601611b1c565b9150509250929050565b6000602082019050611ed360008301846119c1565b92915050565b600080600060608486031215611ef257611ef1611853565b5b6000611f00868287016118a6565b9350506020611f11868287016118a6565b925050604084013567ffffffffffffffff811115611f3257611f31611858565b5b611f3e86828701611b1c565b9150509250925092565b600060a082019050611f5d60008301886119c1565b8181036020830152611f6f8187611988565b9050611f7e6040830186611e07565b611f8b6060830185611e07565b611f9860808301846119c1565b9695505050505050565b6000602082019050611fb76000830184611e07565b92915050565b6000608082019050611fd260008301876119c1565b611fdf6020830186611e07565b8181036040830152611ff18185611988565b905061200060608301846119c1565b95945050505050565b7f4e487b7100000000000000000000000000000000000000000000000000000000600052602260045260246000fd5b6000600282049050600182168061205057607f821691505b60208210810361206357612062612009565b5b50919050565b7f4e487b7100000000000000000000000000000000000000000000000000000000600052603260045260246000fd5b7f4e487b7100000000000000000000000000000000000000000000000000000000600052601160045260246000fd5b60006120d2826118bb565b91507fffffffffffffffffffffffffffffffffffffffffffffffffffffffffffffffff820361210457612103612098565b5b600182019050919050565b60008190508160005260206000209050919050565b60006020601f8301049050919050565b600082821b905092915050565b6000600883026121717fffffffffffffffffffffffffffffffffffffffffffffffffffffffffffffffff82612134565b61217b8683612134565b95508019841693508086168417925050509392505050565b6000819050919050565b60006121b86121b36121ae846118bb565b612193565b6118bb565b9050919050565b6000819050919050565b6121d28361219d565b6121e66121de826121bf565b848454612141565b825550505050565b600090565b6121fb6121ee565b6122068184846121c9565b505050565b5b8181101561222a5761221f6000826121f3565b60018101905061220c565b5050565b601f82111561226f576122408161210f565b61224984612124565b81016020851015612258578190505b61226c61226485612124565b83018261220b565b50505b505050565b600082821c905092915050565b600061229260001984600802612274565b1980831691505092915050565b60006122ab8383612281565b9150826002028217905092915050565b6122c482611931565b67ffffffffffffffff8111156122dd576122dc611a1f565b5b6122e78254612038565b6122f282828561222e565b600060209050601f8311600181146123255760008415612313578287015190505b61231d858261229f565b865550612385565b601f1984166123338661210f565b60005b8281101561235b57848901518255600182019150602085019450602081019050612336565b868310156123785784890151612374601f891682612281565b8355505b6001600288020188555050505b505050505050565b600081905092915050565b600081546123a581612038565b6123af818661238d565b945060018216600081146123ca57600181146123df57612412565b60ff1983168652811515820286019350612412565b6123e88561210f565b60005b8381101561240a578154818901526001820191506020810190506123eb565b838801955050505b50505092915050565b60006124278284612398565b915081905092915050565b600061243d82611931565b612447818561238d565b935061245781856020860161194d565b80840191505092915050565b600061246f8284612432565b915081905092915050565b7f636f756e74206973206e6f742070726f70657200000000000000000000000000600082015250565b60006124b060138361193c565b91506124bb8261247a565b602082019050919050565b600060208201905081810360008301526124df816124a3565b9050919050565b60006124f1826118bb565b91506124fc836118bb565b925082820390508181111561251457612513612098565b5b92915050565b6000612525826118bb565b9150612530836118bb565b925082820190508082111561254857612547612098565b5b92915050565b7f636f756e74206973206e6f7420646566696e6564000000000000000000000000600082015250565b600061258460148361193c565b915061258f8261254e565b602082019050919050565b600060208201905081810360008301526125b381612577565b9050919050565b7f596f7520646f6e27742068617665206163636573730000000000000000000000600082015250565b60006125f060158361193c565b91506125fb826125ba565b602082019050919050565b6000602082019050818103600083015261261f816125e3565b9050919050565b61262f81611dd1565b811461263a57600080fd5b50565b60008151905061264c81612626565b92915050565b60006020828403121561266857612667611853565b5b60006126768482850161263d565b91505092915050565b7f596f75206e65656420746f206c6f6720696e2066697273740000000000000000600082015250565b60006126b560188361193c565b91506126c08261267f565b602082019050919050565b600060208201905081810360008301526126e4816126a8565b905091905056fea2646970667358221220d5645b4159e197b283a0f7ed1df6e00d6ba4759290f0fca503b473befa79363564736f6c63430008130033",
  "immutableReferences": {},
  "source": "// SPDX-License-Identifier: MIT\r\npragma experimental ABIEncoderV2;\r\npragma solidity >= 0.5.0 < 0.9.0;\r\ncontract Twitter {\r\n\r\nstruct user{\r\n        address id;\r\n        string password;\r\n}\r\nstruct Tweet{\r\n    uint id;\r\n    address author;\r\n    string content;\r\n    uint createdAt;\r\n}\r\nstruct Message{\r\nuint id;\r\nstring content;\r\naddress from;\r\naddress to;\r\nuint createdAt;\r\n}\r\nstruct image{\r\n      string imageHash;\r\n      string caption;\r\n      uint uploaded_at;\r\n}\r\nmapping(address => bool) public loggedIn;\r\nmapping(uint=> Tweet) public tweets;\r\nmapping(address=>image[]) public images;\r\nmapping(address => uint[]) public tweetsOf;\r\nmapping(address=>Message[])public chats;\r\nmapping(address=>address[]) public followings;\r\nuint nextId;\r\nuint nextMessageld;\r\n\r\nuser[] public u1;\r\nimage[] public i1;\r\n\r\nfunction create_user(address _id, string memory pass) public returns(string memory) {\r\n    for (uint i = 0; i < u1.length; i++) {\r\n        if (u1[i].id == _id) {\r\n            return \"user already exists\";\r\n        }\r\n    }\r\n    u1.push(user(_id, pass));\r\n    return \"user created successfully\";\r\n}\r\n    function log_in(address uid, string memory passd) public returns(string memory){\r\n        for(uint j = 0; j<u1.length; j++){\r\n            if(uid==u1[j].id && keccak256(abi.encodePacked(passd))==keccak256(abi.encodePacked(u1[j].password))){\r\n                loggedIn[uid] = true;\r\n                return \"welcome to the twitter\";\r\n            }\r\n        }\r\n        return \"wrong id password\";\r\n    }\r\nfunction tweet(address _from,string memory _content) public {\r\n    require(Twitter(msg.sender).loggedIn(msg.sender), \"You need to log in first\");\r\n    require(_from==msg.sender, \"You don't have access\");\r\n    tweets[nextId] = Tweet(nextId,_from, _content,block.timestamp);\r\n    tweetsOf[_from].push(nextId);\r\n    nextId = nextId + 1;\r\n}\r\n\r\nfunction sendMessage(address _from,address _to,string memory _content) public{\r\n    require(_from == msg.sender,\"You don't have access\");\r\n    chats[_from].push(Message(nextMessageld, _content,_from,_to,block.timestamp));\r\n    nextMessageld ++;\r\n}\r\nfunction uploadImage(string memory hash,string memory _caption) public{\r\n       images[msg.sender].push(image(hash,_caption,block.timestamp));\r\n}\r\nfunction follow(address _followed) public {\r\n    followings [msg.sender].push(_followed);\r\n}\r\n\r\nfunction getLatestTweets(uint count) public view returns(Tweet[] memory){\r\n    require (count>0 && count <= nextId,\"count is not proper\");\r\n    Tweet[] memory _tweets = new Tweet[](count);\r\n    uint j;\r\n    for (uint i = nextId-count;i<nextId;i++){\r\n        Tweet memory _structure = _tweets[i];\r\n        _tweets[j] = Tweet(_structure.id,\r\n        _structure.author,\r\n        _structure.content,\r\n        _structure.createdAt);\r\n        j = j+1;\r\n    }\r\n    return _tweets;\r\n    }\r\n    function getLatestofUser(address _user, uint count) public view returns(Tweet[] memory){\r\n        Tweet[] memory _tweets = new Tweet[](count);\r\n        uint[] memory ids = tweetsOf[_user];\r\n        require(count>0 && count<=ids.length,\"count is not defined\");\r\n        uint j;\r\n       for(uint i = ids.length-count;i<ids.length;i++){\r\n           Tweet storage _structure = tweets[ids[i]];\r\n           _tweets[j] = Tweet(_structure.id,\r\n           _structure.author,\r\n           _structure.content,\r\n           _structure.createdAt);\r\n           j = j+1;\r\n       }\r\n       return _tweets;\r\n    }\r\n\r\n    function log_out() public {\r\n    loggedIn[msg.sender] = false;}\r\n}",
  "sourcePath": "C:\\Users\\Tanisha\\Desktop\\Blockchain\\DeeTweet\\contracts\\tweeter2.sol",
  "compiler": {
    "name": "solc",
    "version": "0.8.19+commit.7dd6d404.Emscripten.clang"
  },
  "schemaVersion": "3.4.13",
  "updatedAt": "2023-04-21T16:23:59.593Z",
  "networkType": "ethereum",
  "devdoc": {
    "kind": "dev",
    "methods": {},
    "version": 1
  },
  "userdoc": {
    "kind": "user",
    "methods": {},
    "version": 1
  }
}